:020000040000fa
:08000000822104000000000051
:020000040000fa
:1043000001000000ef972100807922000001880061
:1043100000000000050007000c000700a076020066
:10432000000000000040da000000fe004440a90048
:10433000800722000000e00003003200100020008f
:10434000a00188004440a8000000060040af2d00f6
:10435000010020001600370062004000e0804800a5
:10436000910188009001ba0062004000e08048009e
:10437000910188009002ba0062004000e08048008d
:104380000002eb006028e10005003a008301e9002b
:1043900007003300038009000059eb0004003700d8
:1043a0006128e100010032000082eb0005000700f7
:1043b000910188001001ba000200e000e6ff3a0017
:1043c0000000050091018800800278006200400032
:1043d000e08048003559ba008301e9000800320046
:1043e0002559ba008301e900050032000400e0000d
:1043f000f4ff320015d9ba008301e900f1ff3a0059
:1044000000000600839f68000100e00002003d00fc
:1044100060001000e08018000300e00002003d0092
:1044200060011100e08119004b0007004f00e0001f
:1044300002003b0060001000e08018000000060051
:10444000889fbe008a9fbe008c9fbe000404b800f7
:104450000506b8008904460060854e000606b800cf
:104460000a054600e0854e000706b8008b054600a9
:10447000040eb800890446000a854e00050eb800f7
:104480000a0546008b854e00060eb8008b054600d7
:104490000416b8000a0546008b854e000516b800c4
:1044a0008b054600041eb8008b0546000800be00c0
:1044b0000a01be004f06be004f05be004f04be00fd
:1044c000000006000800fa00889fbe008a9fbe0018
:1044d000170007000605be000404be00e00f5200ee
:1044e000e08f5a00e00f5b00e08f5b0008003d00aa
:1044f0000400be000601be00380107000205be0030
:104500000004be000f000700340107000800070088
:104510000802be000a03be000a000700c8ff070029
:104520004f05be004f04be000080fa0000000600e8
:10453000e0b79f00f1b79f0082bf9f0093bf9f002d
:10454000000006006fb09700ffb097000fb997000a
:104550009fb99700000006006022b8000602200004
:104560000000d0008180d2000482d2008582d20077
:104570000000a0000202520083825a0003003b00a8
:104580000202420083824a000000a1000603e90003
:10459000f3ff3a0000000600881f7800000478004e
:1045a0005001be004000be000000420081804a0071
:1045b00002014b0083814b00009cbe000294be00b0
:1045c000dc00070003003100480090000000e80014
:1045d000400498004f04780000000600889fbe0049
:1045e000000478008004eb005001be004000be00d3
:1045f000d000070001003100190020000400500025
:10460000858058000601590087815900009cbe0032
:104610000294be0048009000090050004004980039
:104620004f04be00000006001200fa00889fbe0082
:104630008a9fbe008c1f78000205be000004be00e9
:10464000f4b79f0085bf9f0096bf9f00a7bf9f0044
:104650000000eb00e0b79f00d0b79f00c0b79f00fd
:10466000b0b79f00a0b79f000006eb005fb19700b6
:104670006fb097008000d0000000e00015003d0002
:10468000e1b79f00010078000200e00001003d005a
:104690000000a000ac00070001003d000000a000e9
:1046a000af00070001003d000000a000b2000700bd
:1046b00001003d000000a0008100070001003d0056
:1046c0000000a000b20007007c805700b2ff070086
:1046d00014003700e1b79f00010078000200e000fd
:1046e00001003d000000a0009700070001003d0010
:1046f0000000a0009a00070001003d000000a0009b
:104700009d00070001003d000000a0006c000700b4
:1047100001003d000000a0009d0007007c805700c4
:10472000aeff07006fb097000000e0000700350003
:1047300010002000010020006011b8000804700083
:10474000898470000a0571008b8571000c06e800f1
:10475000f0032000800f5600c4ff34006fb09700b4
:104760000000e00006003d007fb297008fba97007e
:104770001fbb9700afbb97007c80570086ff0700e8
:104780000802be000a03be006fa897000000e00008
:1047900004003a002fb29700bfb297004fb39700c2
:1047a000dfb397000400be000601be004f0678008c
:1047b0004f05be004f04be000080fa000000060056
:1047c000881f780018002000881f780096ff0700d7
:1047d0008f87e9004f04780000000600801feb007f
:1047e00091ff07008f87e900000006000800fa002b
:1047f000889fbe008a9fbe008c1f78006e00070055
:1048000005003d0043000700300007000c003d009c
:10481000330007000b003700e00f5200e08f5a0012
:10482000e00f5b00e08f5b0006003d000400be006f
:104830000601be00690007000205be000004be00bc
:104840001c0020002c000700ddff07000c00e0002a
:1048500001003200610007004f0678004f05be00de
:104860004f04be000080fa00000006000800fa00b5
:10487000889fbe008a9fbe008c1f78004e000700f4
:1048800002003d001c002000220007000f0007006e
:1048900001003d001200070017000700cfff0700ce
:1048a0000c00e000010032004c0007004f067800c9
:1048b0004f05be004f04be000080fa000000060055
:1048c00090b79f000100d00080b79f00e00f540018
:1048d000e08f5c00e00f5d00e08f5d0000000600ef
:1048e0000800be000a01be003c0007000205be0031
:1048f0000004be00000006000802be000a03be005d
:104900005fb09700efb097007fb197008fb9970025
:10491000000006003100070001000700000006004b
:10492000b0b79f00c1b79f00d2b79f00e3b79f0009
:10493000000006000400e1000588e1000690e100a7
:104940000798e10000000600c0b79f000200d000f9
:10495000b0b79f00afb097000100e0000000060074
:10496000b0b79f000100d000a0b79f009fb0970094
:104970000100e00000000600a0b79f000100d00089
:1049800090b79f008fb097000100e0000000060084
:1049900080b79f000804d0008984d2000a85d20025
:1049a0008b85d2005fb29700efb297007fb397007c
:1049b0008fbb970000000600d9ff07000605be0068
:1049c0000404be000006eb00e00f5000e08f58002a
:1049d000e00f5900e08f5900000006006000100051
:1049e000e080180060011900e08119000000060055
:1049f0000600fa0080022000b08f8800c00320006b
:104a0000c08f8800f01f200090438800c00c200059
:104a1000a043880020332000b043880020c0b300aa
:104a200078e8b70010c0b30079e8b7000040eb00a9
:104a30007ae8b70010c0b3007be8b700c0002000e0
:104a4000e043880040002000f0438800600620001a
:104a500000448800f01f200010448800c00c200093
:104a600020448800203320003044880020c0b30058
:104a700088e8b70010c0b30089e8b7000040eb0039
:104a80008ae8b70010c0b3008be8b700c000200070
:104a900060448800400020007044880060062000c8
:104aa000804488000040eb00c6e8b70071478000f2
:104ab000e0ff2f0000806000704788007147800091
:104ac00070ff2f000080600070478800d40ae20069
:104ad00005003200704780000108200001007000ce
:104ae000704788000400370070478000f1f72f00fe
:104af000010060007047880071478000f0ef2f00d0
:104b0000008060007047880071478000d0ff2f0050
:104b1000008060007047880071478000b0ff2f0060
:104b20000080600070478800e0012000e0488800b5
:104b30000040eb00e0e8b70000538000004688002a
:104b40001153800011468800100020007046880034
:104b500080bb2000804688000040eb005de8b70085
:104b60000040eb005de8b7000040eb00fae9b70059
:104b70000040eb00fbe9b7000040eb00bae8b700eb
:104b800010c0b3009ae8b700d2638000c244880026
:104b90000040eb00fde9b700401f2000d0c98800ad
:104ba0000040eb006ce8b70086ccbf0052e8b700cd
:104bb000605880004200dd001380210003004000a7
:104bc000805b8800605880004200dd0014002b00ec
:104bd00004004000905b880041658000f00f2000d9
:104be000008060004200dd0011002c000100400048
:104bf000a05b880040658000c800de00f00f200048
:104c0000008060004200dd0012002c000200400025
:104c1000b05b880051658000f00f200000806000cc
:104c20004200dd0013002c0003004000c05b880040
:104c300050658000c800de00f00f2000008060009a
:104c40004200dd0014002c0004004000d05b88000e
:104c500061658000f00f2000008060004200dd00f0
:104c600011002c0001004000e05b880060658000be
:104c7000c800de00f00f2000008060004200dd0070
:104c800012002c0002004000f05b8800806580006c
:104c90004200dd0013002c0003004000005c88008f
:104ca0000040eb0042ebb7000000eb00205a880008
:104cb000f4528000345a88000040eb0048ebb70003
:104cc000401f2000705a88000040eb0049ebb700fd
:104cd00040062000805a88000040eb004bebb700f4
:104ce000e0152000005588000040eb0062ebb700a3
:104cf0000040eb0063ebb7000040eb0064ebb70053
:104d00000040eb006ae8b7000040eb00fee9b700a6
:104d10000040eb006eebb70000192000308f8800d8
:104d20000040eb0088ebb7000040eb00baebb700a7
:104d3000a0c0b300bbebb7000040eb00beebb70078
:104d40000040eb00c4ebb7000000eb00e05d880022
:104d50000040eb00c6ebb7006062220001002000bb
:104d6000505c8800615c88006000b800b05c88001e
:104d7000c15c88006000b800d05c8800e15c8800fd
:104d80006000b800f05c8800015d88000040eb0026
:104d9000aaebb7000000eb00605d88000040eb006c
:104da000b4ebb700606880006101b8000024240003
:104db000f100200093fd0700105d8800215d880050
:104dc000606880006101b800006829008109200046
:104dd0008cfd0700305d8800415d8800105d80001b
:104de000215d8000820c20000300200085fd07006b
:104df000705c8800815c8800705c8000815c800051
:104e0000a20020000202b8000001eb000283b900fa
:104e10000501780006014100a30020000388b900c5
:104e200000014100820278001407980025079800cd
:104e30001e009000ae009000e00f5000e08f580080
:104e400006003d001e019000ae019000f207b00088
:104e50000380b00012079800230798001e019000fd
:104e6000ae019000491add004710de00000072001c
:104e7000c798de00905c8800a15c8800705d8000af
:104e8000a2002000110009000280d800b05d880057
:104e9000805d8000a2002000110009000280d8007f
:104ea000c05d88000040eb00c8ebb7000040eb009d
:104eb000c7ebb7000040eb00cfebb7000040eb00c2
:104ec000ceebb7000000eb00605f88000040eb0015
:104ed000d6ebb70060498000c05e880080252000c6
:104ee000d05e88000040eb00dcebb7000040eb0038
:104ef000dfebb70010c0b300efebb7000040eb00f2
:104f0000e1ebb7000040eb00e2ebb7000040eb0044
:104f10005eebb70021578000915f88002257800028
:104f2000a25f880023578000b35f88002457800069
:104f3000c45f88005074200080608800806080001a
:104f4000cf80de004c0add00c402de008502720064
:104f50004c02dd00006d80006101b8000400be005d
:104f600028fd0700806088000040eb0024ecb700bb
:104f70000040eb0025ecb7000080fa0000000600be
:104f80000000fa00920ae2000d003a00c0568000cc
:104f9000e30f50000a003a0060498000680060009a
:104fa0000000e0000300320010c0b300e0ebb700e7
:104fb000240037000040eb00e0ebb7002100370091
:104fc00090548000e10f500005003200c056800070
:104fd000e30f50000a003200920ae20008003a0093
:104fe000fe08e20003003a0010c0b300e0ebb70097
:104ff000140037000040eb00e0ebb7001100370071
:1050000090548000e20f50000e003a00fe08e200cb
:105010000700320060498000680060000000e00086
:1050200006003200c0568000e30f500003003a0033
:1050300010c0b300e0ebb700020037000040eb0007
:10504000e0ebb7000080fa00000006000e00fa0056
:10505000889fbe00204f800020079800406e80008f
:1050600011802f0001004000200798002e009000c2
:10507000b81f0700000f78001e007800cf80de0008
:1050800001017800820178001e027800cfa2de00c4
:1050900005037800860378000afd07001e027800e9
:1050a000cfa2de00050378008603780005fd070027
:1050b000a458800005002000060020000700200002
:1050c00000fd07003007980041079800520798003c
:1050d000630798003e009000ce0090005e019000b3
:1050e000ee01900001007800820078006119b8009c
:1050f000300798004107980052079800630798000e
:1051000028b2200020b220003002be002003be00e2
:105110003e009000ce0090005e019000ee019000f5
:10512000040040008580480006014900878149004d
:10513000009cbe000294be0028b2200026b22000cf
:10514000b0588000c15880004f8ade00cfa2de0038
:10515000b0588000c15880000401780084017800b4
:105160003602be001603be000000520081805a00c5
:1051700002015b0083815b00009cbe000294be00c4
:1051800020b220005001be004000be00e00f5000e1
:10519000e08f5800e00f5900e08f590005003d00f6
:1051a00024b220006000b8006011b800009abe0070
:1051b0000292be0020b220005001be004000be009e
:1051c000940120008381d1000281d3008180d3002b
:1051d0000080d3000402e900faff3a005070880012
:1051e000a0b120005001be004000be00940120008c
:1051f0008301d1000281d3008180d3000080d300dd
:105200000402e900faff3a006070880051708000e3
:10521000a0598000808f5000070031000040eb0053
:10522000fce9b70061708000a05980000080500048
:10523000100798000f0037005170800060708000e8
:10524000808f50000500360010c0b300fce9b700a5
:105250000000eb00100798000600370010c0b300f4
:10526000fce9b70061708000507080000080500041
:1052700010079800915180009058800000805000e5
:105280006102b8001e009000cf80de000023b8004d
:1052900001a4b90007017800080141000580b900a8
:1052a0000001410082037800505980000100200075
:1052b0000032b80001b4b9000501780008014100ce
:1052c0000780b900000141008202780040a8de009a
:1052d000cf80de009258800002004000b059880064
:1052e000b05980004f04be000080fa0000000600a4
:1052f0000200fa000040eb00004f7800a049800057
:105300006101b900404b8000514b8000800f51007b
:10531000818f590007003d000040eb00fbe9b7001a
:105320000000eb00104f88000000eb00004f8800e9
:10533000e8003700a04980006101b900604b80009f
:10534000714b8000800f5100818f590066003d0035
:1053500010c0b300fbe9b700e409e20031003400fb
:10536000a04980006101b900404b8000514b800092
:105370000000510081805900424e80000202b800b6
:10538000524e80000283b9000501780006014100f9
:10539000434e80000198b90000014100820278006c
:1053a0004429dd004c20de0000007100cca8de00a6
:1053b000f27f20000202b8000001eb000283b90076
:1053c0000501780006014100f37f20000388b90041
:1053d00000014100820278004929dd004720de00fb
:1053e00000007100c7a8de00f27f2000000051001d
:1053f000004f8800004f8000cf80de004c0add00a7
:10540000c402de00850272004c02dd00006d8000e7
:105410006101b8000400be00fafb0700004f8800dd
:10542000ac003700a04980006101b900404b80000a
:10543000514b80000000510081805900424e800095
:105440000202b800524e80000283b90005017800c4
:1054500006014100434e80000198b900000141005f
:10546000820278004429dd004c20de00000071003b
:10547000cca8de00f27f20000202b8000001eb00a1
:105480000283b9000501780006014100f37f200086
:105490000388b90000014100820278004929dd003b
:1054a0004720de0000007100c7a8de00f27f200068
:1054b00000005100104f8800104f8000cf80de00a8
:1054c0004c0add00c402de00850272004c02dd00e1
:1054d000006d80006101b8000400be00c9fb070038
:1054e000104f88007b003700a04980006101b9009f
:1054f000804b8000914b8000800f5100818f5900bc
:105500006e003d0010c0b300fbe9b700e409e20003
:1055100035003400a04980006101b900604b800073
:10552000714b80000000510081805900624e800064
:105530000202b800724e80000283b90005017800b3
:1055400006014100634e80000198b900000141004e
:10555000820278004428dd004c21de000201700048
:10556000cca9de00c04b8000d14b8000020040007f
:1055700083804800f27f20000202b8000001eb00a7
:105580000283b9000501780006014100f37f200085
:105590000388b90000014100820278004929dd003a
:1055a0004720de0000007100c7a8de00f27f200067
:1055b00000005100004f8800004f8000cf80de00c7
:1055c0004c0add00c402de00850272004c02dd00e0
:1055d000006d80006101b8000400be0089fb070077
:1055e000004f88003b003700a04980006101b900ee
:1055f000604b8000714b8000000051008180590099
:10560000624e80000202b800724e80000283b90030
:105610000501780006014100634e80000198b90041
:1056200000014100820278004428dd004c21de00a8
:1056300002017000cca9de00c04b8000d14b80007d
:105640000200400083804800f27f20000202b80080
:105650000001eb000283b90005017800060141005a
:10566000f37f20000388b900000141008202780026
:105670004929dd004720de0000007100c7a8de00d8
:10568000f27f200000005100104f8800104f800072
:10569000cf80de004c0add00c402de00850272000d
:1056a0004c02dd00006d80006101b8000400be0006
:1056b00054fb0700104f88000600370010c0b300ed
:1056c000fbe9b7000000eb00004f88000000eb0092
:1056d000104f88001e04e00081003200a0498000c5
:1056e0006101b900404b8000514b8000800f510098
:1056f000818f590007003d000040eb00fbe9b70037
:105700000000eb00104f88000000eb00004f880005
:1057100073003700a04980006101b900804b800010
:10572000914b8000800f5100818f590066003d0031
:1057300010c0b300fbe9b700e409e2003100340017
:10574000a04980006101b900404b8000514b8000ae
:105750000000510081805900824e80000202b80092
:10576000924e80000283b9000501780006014100d5
:10577000834e80000198b900000141008202780048
:105780004429dd004c20de0000007100cca8de00c2
:10579000f27f20000202b8000001eb000283b90092
:1057a0000501780006014100f37f20000388b9005d
:1057b00000014100820278004929dd004720de0017
:1057c00000007100c7a8de00f27f20000000510039
:1057d000004f8800004f8000cf80de004c0add00c3
:1057e000c402de00850272004c02dd00006d800004
:1057f0006101b8000400be0002fb0700004f8800f2
:1058000037003700a04980006101b900404b80009b
:10581000514b80000000510081805900824e800071
:105820000202b800924e80000283b90005017800a0
:1058300006014100834e80000198b900000141003b
:10584000820278004429dd004c20de000000710057
:10585000cca8de00f27f20000202b8000001eb00bd
:105860000283b9000501780006014100f37f2000a2
:105870000388b90000014100820278004929dd0057
:105880004720de0000007100c7a8de00f27f200084
:1058900000005100104f8800104f8000cf80de00c4
:1058a0004c0add00c402de00850272004c02dd00fd
:1058b000006d80006101b8000400be00d1fa07004d
:1058c000104f88000600370010c0b300fbe9b70096
:1058d0000000eb00004f88000000eb00104f880034
:1058e0000080fa00000006000800fa00000f7800af
:1058f00011079800424798000000eb00300798001d
:105900004e4090000004e000410032009e009000f4
:10591000400020000008b800c29021008200400032
:105920004e4090000001fb001100be000201e900a2
:10593000030033008180d1000080d300fbff3700db
:1059400080c988009e009000400020000008b80038
:10595000c4902100840140009e009000400020007f
:105960000008b800c49021000401400080c98000f4
:1059700001002000b2191000a29118009e009000b2
:10598000400020000008b800c290210082014000c1
:105990009e009000400020000008b800c490210044
:1059a000040140001e00780001002000b2194000f0
:1059b000a29148009e009000400020000008b8001e
:1059c000c2902100820040004e4090000001fb0088
:1059d0001100be000201e900030033008180d10004
:1059e0000080d300fbff370080c9880081c9800098
:1059f000f03f2000808f500002003600f03f200072
:105a000080c9880084c980003407980002003700ec
:105a10001e007800300798003e0090000080fa00d9
:105a2000000006000000fa00e402a800cc22a80052
:105a3000e4c2a800e4e2a800e422a800e502a8006d
:105a4000c6a2a800d2e2a800d902a800d922a800c4
:105a5000d3c2a800d3e2a800d3a2a800cc62a900b8
:105a6000cda2a900cdc2a900d2c2a900d202a9002c
:105a7000d222a900d242a900d262a900d282a900f2
:105a8000d2a2a900d302a900d322a900c1e2a90091
:105a9000d362a800e462a9000080fa0000000600ba
:105aa0000000fa0000032000200888000000eb003e
:105ab0000008880050012000100888000000eb005a
:105ac000800888000000eb0030088800900f20005c
:105ad0006008880000022000900888000000eb00a9
:105ae000500888008ce0a9005089290070088800bf
:105af00000032000000988000000eb00c0088800b7
:105b000000002100e00888000080fa000000060084
:105b10000000fa008560a9008d60a900a1e2a9003b
:105b20000080eb003016880070022a0040158800c3
:105b30009000200030158800400e220000158800db
:105b400040422600101588001020210020158800f2
:105b500080fd2500501588000080fa000000060036
:105b60000000fa000000eb00100c88000000eb00c1
:105b7000400c88000000eb00700c88000000eb0077
:105b8000d00c88000000eb00000d88000000eb0046
:105b9000000c88000000eb00300c88000000eb00d7
:105ba000600c88000000eb00c00c88000000eb00d7
:105bb000f00c880060002200200c880060002200a9
:105bc000500c880060002200800c880060002200d9
:105bd000e00c880060002200100d88000080fa00b0
:105be000000006000000fa000010220010098800e2
:105bf00000102000200988001000200040098800c3
:105c00000000eb00300988000080fa000000060068
:105c10000000fa0000402b00801c880090c3bf00e9
:105c20000080fb004500de000080fb00e40f500018
:105c3000faff3a0070042000901c88008039200090
:105c4000a01c88000000eb00b01c8800300220007f
:105c5000c01c88000000eb00001888000000eb006a
:105c600040188800100020008018880010002000d4
:105c7000c0188800100020000019880010002000c3
:105c8000401988000000eb00101888000000eb00ad
:105c9000501888000000eb00901888000000eb000e
:105ca000d01888000000eb00101988000000eb00fd
:105cb000501988000000eb00201888000000eb005d
:105cc000601888000000eb00a01888000000eb00be
:105cd000e01888000000eb00201988000000eb00ad
:105ce0006019880010002000801988001000200032
:105cf000c01988000000eb00901988000000eb003c
:105d0000d01988000000eb00a01988000000eb000b
:105d1000e019880010002000701b8800100020008f
:105d2000f01a880010002000701a88000000eb00b4
:105d3000001b88000000eb00801a88000000eb00c8
:105d4000001a88000000eb00101b88000000eb0028
:105d5000901a88000000eb00101a8800001920003b
:105d6000201b880000192000a01a880000192000bc
:105d7000201a880010082c00001b8800200d20002d
:105d8000101b8800001b2200201b88000000eb0075
:105d9000701c880020002000f01b88000000eb0031
:105da000001c880010002000801b88000000eb0011
:105db000101c88000000eb00901b88000000eb0026
:105dc000201c88000000eb00a01b880000002b00b6
:105dd000801c880090c3bf000080fb004500de00ef
:105de0000080fb000000e000faff3a000080fa00ab
:105df000000006000000fa0010002200700a88006f
:105e00000080fa00000006000000fa0020002200d6
:105e1000000e88000000eb00100e8800b009200082
:105e2000200e88000000eb00300e8800f08f20006c
:105e3000400e88000000eb00500e8800202020005b
:105e4000600e88000000eb00700e88000000eb0080
:105e5000800e88000000eb00900e880000502100aa
:105e6000a00e880060132000b00e88000000eb0038
:105e7000c00e88000000eb00d00e88000080fa0001
:105e8000000006000000fa008e00a9008c60a90046
:105e90008ea0a9008ec0a9008c20a9008c80a9002a
:105ea0008fa0a9008f60a9008d60a90090e0a900d3
:105eb0000080fa00000006000000fa0042c0bf00a7
:105ec0007f40600042e0b7000000eb000004880063
:105ed0000000eb0010048800c10920009140780008
:105ee00080cfb30000c060006040b3009ce0b7000a
:105ef0008600a9008e00a900510920009140780079
:105f0000f0c8b30000c0600001c3b30001407000de
:105f100095e0b7008460a9008c60a800e10920002a
:105f200091407800f0c8b30000c0600001c4b30025
:105f3000014070009ee0b70086a0a9008ea0a900d5
:105f4000f10920009140780080cfb30000c06000cc
:105f50003040b3009fe0b70086c0a9008ec0a90002
:105f60004109200091407800f0c8b30000c06000f3
:105f700001c3b3000140700094e0b7008420a90081
:105f80008c20a900610920009140780080cfb300e7
:105f900000c060003040b30096e0b7008480a900e4
:105fa0008c80a900210a200091407800f0c8b3003d
:105fb00000c0600001c3b30001407000a2e0b70060
:105fc00087a0a9008fa0a800110a200091407800a6
:105fd000f0c8b30000c060000044a000a1e0b7001a
:105fe0008760a9008f60a800910920009140780087
:105ff000f0c8b30000c0600001c4b30001407000ed
:1060000099e0b7008560a9008d60a800710a2000a2
:1060100091407800f0c8b30000c0600001c5b30033
:1060200001407000a7e0b70088e0a90090e0a80058
:10603000010a20009140780080cfb30000c06000ca
:106040000014a000a0e0b700010a200091407800f1
:10605000f0c8b30000c0600001c2b300014070008e
:10606000a0e0b7000080fa00000006000000fa007f
:10607000dec2a9000000220000118800f0122000fa
:10608000101188000080fa00000006000200fa00eb
:106090006048e2000200340060c8bf0034f9b70075
:1060a00060498000700060000000e00014003a00c9
:1060b00071478000d0ff2f0000806000704788008b
:1060c0000000eb00b0ca88000040eb0058f9b700b0
:1060d0000040eb005af9b70020c0b30059f9b700ef
:1060e0000c0be20003003a00704780000010a00093
:1060f000704788000000eb00000f78007c0037003c
:106100005619e20004003200b0ca80000000e90025
:10611000b0ca8800590037005859e2001100320017
:106120004080200011c0b30090cf100006003a005c
:106130000040eb0004e8b70058d9bf000040e90078
:1061400058f9b7000400370010c0b30004e8b700e6
:1061500010c0b30005e8b700a00f2000b0ca880047
:106160003a0037009095210011c0b30090cf100085
:106170001b003a005a59e20005003200c05d2000c1
:10618000b0ca88000040eb005af9b7002f00370072
:10619000a00f2000b0ca880010c0b3005af9b700a1
:1061a00020c0b30059f9b70034d9bf000000fb008c
:1061b000a2002000110009000200d8008000fd00ac
:1061c00058f9b7005859e2002000320010c0b3005f
:1061d00004e8b70010c0b30005e8b7001b003700a3
:1061e0005a59e2000700320040192100b0ca880065
:1061f0000040eb005af9b7000040eb0034f9b7005b
:1062000012003700a00f2000b0ca880010c0b300f1
:106210005af9b70010c0b30059f9b70034d9bf001c
:106220000000fb00a2002000110009000200d800bd
:1062300058f9b7005859e2000400320010c0b3000a
:1062400004e8b70010c0b30005e8b70040802000a4
:1062500011c0b30090cf100004003a0070478000d6
:106260000010a000704788000400370070478000cd
:10627000d1ff2f0001006000704788005c48e200f9
:1062800019003a005d48e20017003a00fa49e200be
:1062900015003a00fb49e20013003a004048800034
:1062a00001082000010060000000e0000e003a003c
:1062b0004048800001102000010060000000e00064
:1062c00009003a006a48e20007003a006b48e20021
:1062d00005003a003459e20003003a000000eb00e8
:1062e000000f78000200370011002000010f780035
:1062f0001e0078000080fa00000006000000fa008e
:1063000060498000700060000000e00039003a0041
:106310006e59e2002a0034005c19e20004003200e9
:10632000e0ca80000000e900e0ca880024003700cd
:106330005e19e2000f0032004095210011c0b30049
:1063400090cf100006003a000040eb0054f9b7006f
:10635000f0ca80000000e900f0ca8800020037009f
:1063600010c0b30054f9b700a00f2000e0ca8800a5
:10637000130037006059e20008003200803e200020
:10638000e0ca88000040eb0060f9b7006ed9bf009a
:106390000040e9006ef9b70009003700a00f2000a7
:1063a000e0ca880010c0b30060f9b70060588000f0
:1063b0000000e800f0ca880010c0b30054f9b7002c
:1063c0004095210011c0b30090cf100004003a00a6
:1063d000704780000020a000704788000e00370042
:1063e00070478000b1ff2f000100600070478800f7
:1063f000090037000000eb00f0ca88000040eb0005
:1064000060f9b700704780000020a0007047880046
:1064100050c0b3006ef9b7000080fa00000006001b
:106420000400fa00b142800080498000008f5000d3
:106430001e00e00001003d001e0fea0060498000e0
:1064400001402000010060000000e00004003a006c
:10645000b0548000680060000000e0000f003a00c7
:106460000000eb00b047880051488000e0ff2f009b
:10647000008060005048880000fa200010cb88009f
:1064800061488000b0ff2f000080600060488800f5
:106490000000eb0010079800940037006055800062
:1064a000e40f500034003a00e0478000e40f500051
:1064b0000a003200e0478000e90f5000030032007c
:1064c000e0478000e20f500009003a006049800078
:1064d000640060000000e00005003200b05480005d
:1064e00001802000010060000000e00009003a0087
:1064f000ce4be20005003200b05480000140200085
:10650000010060000000e00002003a000d4ce200d3
:106510000a0032006048e20008003a006208800089
:10652000b2478800504880000000a0005048880012
:1065300010002000100798006c0037000000eb00ee
:10654000b047880051488000e0ff2f0000806000c5
:106550005048880000fa200010cb88006148800075
:10656000b0ff2f0000806000604888000001eb0051
:10657000120798005d00370060558000e10f500061
:106580001b003a00b40ae20019003a00be4be200d8
:106590000800320060088000b04788005048800042
:1065a0000000a00050488800120020001207980048
:1065b0004e0037000000eb00b047880051488000d3
:1065c000e0ff2f00008060005048880000fa2000a3
:1065d00010cb880061488000b0ff2f000080600071
:1065e000604888000000eb00100798003f0037006b
:1065f00060558000e60f50003a003a004b4be20035
:1066000029003200e0478000e40f50000300320010
:10661000e0478000e30f500023003a0070558000ef
:10662000cf80de00480add00c802de00850272006d
:106630004802dd00904980006101b9000400be00fd
:1066400070f70700e0c98800f1c988006008800081
:1066500001002000e2c980000202b800f2c98000f7
:106660000283b9000501780006014100e3c98000fa
:106670000198b90000014100820278004829dd003c
:106680004820de0000007100c8a8de00b047880086
:10669000504880000000a0005048880010002000f2
:1066a00010079800110037000000eb00b047880089
:1066b00051488000e0ff2f000080600050488800b3
:1066c00000fa200010cb880061488000b0ff2f0046
:1066d00000806000604888000001eb00120798000d
:1066e000020037000000eb00100798001e00900029
:1066f0000080fa00000006000400fa0071498000e2
:10670000a0428000008f50006149800000402000be
:10671000008060000000e00006003a00b0548000f5
:10672000680060000000e000020032006048e20003
:106730000f0032000000eb00b04788005148800095
:10674000e0ff2f00008060005048880000fa200021
:1067500010cb880061488000b0ff2f0000806000ef
:10676000604888000000eb0010079800890037009f
:1067700060558000e40f500037003a00ce4be20035
:1067800035003a000d4ce20033003a00b05480006e
:1067900001802000010060000000e0001f003200c6
:1067a000e0478000e40f50005f003200e0478000c7
:1067b000e90f500006003200e0478000e20f500071
:1067c00003003200e0478000e80f500004003a0068
:1067d00060498000640060000000e00052003a0060
:1067e0000000eb00b047880051488000e0ff2f0018
:1067f000008060005048880000fa200010cb88001c
:1068000061488000b0ff2f00008060006048880071
:106810000000eb00100798005e0037000000eb005e
:10682000b047880051488000e0ff2f0000806000e2
:106830005048880000fa200010cb88006148800092
:10684000b0ff2f0000806000604888000000eb006f
:10685000100798004f00370060558000e10f50008e
:1068600013003a00b40ae20011003a00be4be20005
:106870000f003a000000eb00b0478800514880004c
:10688000e0ff2f00008060005048880000fa2000e0
:1068900010cb880061488000b0ff2f0000806000ae
:1068a000604888000000eb001007980039003700ae
:1068b00060558000e60f50001b003a004b4be20091
:1068c00017003a00f20be20004003400905f8000f1
:1068d0000000e900905f88001300370040578000f7
:1068e000905f88000000eb00b047880051488000ae
:1068f000e0ff2f00008060005048880000fa200070
:1069000010cb880061488000b0ff2f00008060003d
:10691000604888000000eb00100798001d00370059
:1069200040578000905f88006048800064006000ed
:106930000000e00015003a006219e2000600320093
:1069400010cb80000000e90010cb88001000200070
:10695000100798000f00370060088000b0478800db
:10696000504880000000a0005048880000fa200035
:1069700010cb8800604880000020a000604888009c
:1069800010002000100798000200370010002000bf
:10699000100798001e0090000080fa00000006001a
:1069a0000200fa00604980000180200001006000c0
:1069b0000000e00004003a00b05480007000600065
:1069c0000000e0000b003a000000eb00c047880028
:1069d00000fa200020cb88006148800070ff2f0063
:1069e00000806000604888000000eb00000f780025
:1069f000b3003700b0558000e40f500046003a0065
:106a0000e0478000e40f50000a003200e0478000b9
:106a1000e90f500003003200e0478000e20f500011
:106a200009003a0060498000640060000000e00056
:106a300005003200b0548000018020000100600099
:106a40000000e00009003a00ce4be20005003200f1
:106a5000b054800001402000010060000000e00010
:106a600002003a000d4ce20020003200c0558000c8
:106a7000cf80de00480add00c802de008502720019
:106a80004802dd00904980006101b9000400be00a9
:106a90005cf6070040ca880051ca88006008800080
:106aa0000100200042ca80000202b80052ca8000e1
:106ab0000283b900050178000601410043ca800045
:106ac0000198b90000014100820278004829dd00e8
:106ad0004820de0000007100c8a8de00c047880022
:106ae00010002000000f7800750037000000eb0058
:106af000c047880000fa200020cb88006148800051
:106b000070ff2f0000806000604888000001eb00eb
:106b1000020f78006a003700b0558000e10f500086
:106b20002f003a00bc0ae2002d003a00be4be20002
:106b300020003200c0558000cf80de00480add0012
:106b4000c802de00850272004802dd009049800024
:106b50006101b9000400be002af6070040ca88009f
:106b600051ca8800600880000100200042ca8000ed
:106b70000202b80052ca80000283b9000501780001
:106b80000601410043ca80000198b900000141009c
:106b9000820278004829dd004820de0000007100f4
:106ba000c8a8de00c047880010002000000f780051
:106bb000430037000000eb00c047880000fa2000c7
:106bc00020cb88006148800070ff2f0000806000ab
:106bd000604888000001eb00020f780038003700a1
:106be000b0558000e60f500033003a004b4be200f6
:106bf00026003200e0478000e40f5000030032001e
:106c0000e0478000e30f500020003a00c0558000ac
:106c1000cf80de00480add00c802de008502720077
:106c20004802dd00904980006101b9000400be0007
:106c3000f4f5070040ca880051ca88006008800047
:106c40000100200042ca80000202b80052ca80003f
:106c50000283b900050178000601410043ca8000a3
:106c60000198b90000014100820278004829dd0046
:106c70004820de0000007100c8a8de00c047880080
:106c800010002000000f78000d0037000000eb001e
:106c9000c047880000fa200020cb880061488000af
:106ca00070ff2f0000806000604888000001eb004a
:106cb000020f7800020037000000eb00000f7800a0
:106cc0001e0078000080fa00000006000200fa00b2
:106cd0006049800001802000010060000000e000a9
:106ce00004003a00b0548000700060000000e00032
:106cf0000b003a000000eb00c047880000fa2000bb
:106d000020cb88006148800070ff2f000080600069
:106d1000604888000000eb00000f78009100370009
:106d2000b0558000e40f50002f003a00ce4be20037
:106d30002d003a000d4ce2002b003a00b0548000c8
:106d400001802000010060000000e0001b00320014
:106d5000e0478000e40f50004f003200e047800021
:106d6000e90f500006003200e0478000e20f5000bb
:106d700003003200e0478000e80f500004003a00b2
:106d800060498000640060000000e00042003a00ba
:106d90000000eb00c047880000fa200020cb8800ec
:106da0006148800070ff2f0000806000604888000c
:106db0000001eb00020f78006a0037000000eb00d2
:106dc000c047880000fa200020cb8800614880007e
:106dd00070ff2f0000806000604888000000eb001a
:106de000000f78005f003700b0558000e10f5000c1
:106df0000f003a00bc0ae2000d003a00be4be20070
:106e00000b003a000000eb00c047880000fa2000a9
:106e100020cb88006148800070ff2f000080600058
:106e2000604888000001eb00020f78004d00370039
:106e3000b0558000e60f500017003a004b4be200bf
:106e400013003a00f40be20004003400a05f80005d
:106e50000000e900a05f88000f0037004057800065
:106e6000a05f88000000eb00c047880000fa200007
:106e700020cb88006148800070ff2f0000806000f8
:106e8000604888000001eb00020f780035003700f1
:106e900040578000a05f8800604880006800600064
:106ea0000000e0002d003a006419e2000600320004
:106eb00020cb80000000e90020cb880012002000d9
:106ec000020f780027003700d0558000cf80de0009
:106ed000480add00c802de00850272004802dd00bb
:106ee000904980006101b9000400be0045f507002b
:106ef00040ca880051ca8800600880000100200054
:106f000042ca80000202b80052ca80000283b9005f
:106f1000050178000601410043ca80000198b900cc
:106f200000014100820278004829dd004820de008f
:106f300000007100c8a8de00c047880000fa2000e9
:106f400020cb8800604880000030a00060488800a6
:106f500010002000000f780002003700120020000f
:106f6000020f78001e0078000080fa000000060082
:106f70000200fa0060498000010024000100600066
:106f80000000e00005003a00b0548000010220003b
:106f9000010060000000e0000b003a000000eb0080
:106fa000d047880000fa200030cb8800614880007c
:106fb000d0ff2f0000806000604888000000eb00d8
:106fc000000f7800b300370080578000e40f5000b6
:106fd00046003a00e0478000e40f50000a0032000b
:106fe000e0478000e90f500003003200e0478000d6
:106ff000e20f500009003a00604980006400600020
:107000000000e00005003200b05480000180200044
:10701000010060000000e00009003a00ce4be200f1
:1070200005003200b05480000140200001006000e3
:107030000000e00002003a000d4ce20020003200a7
:1070400050578000cf80de00480add00c802de0015
:10705000850272004802dd00904980006101b9009c
:107060000400be00e7f4070060ca880071ca880007
:10707000600880000100200062ca80000202b8009f
:1070800072ca80000283b900050178000601410040
:1070900063ca80000198b9000001410082027800b3
:1070a0004829dd004820de0000007100c8a8de008d
:1070b000d047880010002000000f780075003700ce
:1070c0000000eb00d047880000fa200030cb880099
:1070d00061488000d0ff2f00008060006048880079
:1070e0000001eb00020f78006a0037008057800033
:1070f000e10f50002f003a00ee0ae2002d003a00a6
:10710000be4be2002000320050578000cf80de00ee
:10711000480add00c802de00850272004802dd0078
:10712000904980006101b9000400be00b5f4070079
:1071300060ca880071ca88006008800001002000d1
:1071400062ca80000202b80072ca80000283b900dd
:10715000050178000601410063ca80000198b9006a
:1071600000014100820278004829dd004820de004d
:1071700000007100c8a8de00d04788001000200081
:10718000000f7800430037000000eb00d047880074
:1071900000fa200030cb880061488000d0ff2f002b
:1071a00000806000604888000001eb00020f78005a
:1071b0003800370080578000e60f500033003a0057
:1071c0004b4be20026003200e0478000e40f500005
:1071d00003003200e0478000e30f500020003a0037
:1071e00050578000cf80de00480add00c802de0074
:1071f000850272004802dd00904980006101b900fb
:107200000400be007ff4070060ca880071ca8800cd
:10721000600880000100200062ca80000202b800fd
:1072200072ca80000283b90005017800060141009e
:1072300063ca80000198b900000141008202780011
:107240004829dd004820de0000007100c8a8de00eb
:10725000d047880010002000000f78000d00370094
:107260000000eb00d047880000fa200030cb8800f7
:1072700061488000d0ff2f000080600060488800d7
:107280000001eb00020f7800020037000000eb0065
:10729000000f78001e0078000080fa000000060051
:1072a0000200fa0060498000010024000100600033
:1072b0000000e00005003a00b05480000102200008
:1072c000010060000000e0000b003a000000eb004d
:1072d000d047880000fa200030cb88006148800049
:1072e000d0ff2f0000806000604888000000eb00a5
:1072f000000f78009100370080578000e40f5000a5
:107300002f003a00ce4be2002d003a000d4ce20077
:107310002b003a00b0548000018020000100600082
:107320000000e0001b003200e0478000e40f500046
:107330004f003200e0478000e90f500006003200a5
:10734000e0478000e20f500003003200e047800079
:10735000e80f500004003a006049800064006000bb
:107360000000e00042003a000000eb00d047880037
:1073700000fa200030cb880061488000d0ff2f0049
:1073800000806000604888000001eb00020f780078
:107390006a0037000000eb00d047880000fa2000a8
:1073a00030cb880061488000d0ff2f000080600053
:1073b000604888000000eb00000f78005f00370095
:1073c00080578000e10f50000f003a00ee0ae20003
:1073d0000d003a00be4be2000b003a000000eb004b
:1073e000d047880000fa200030cb88006148800038
:1073f000d0ff2f0000806000604888000001eb0093
:10740000020f78004d00370080578000e60f5000d3
:1074100017003a004b4be20013003a00f60be20073
:1074200004003400b05f80000000e900b05f880015
:107430000f00370040578000b05f88000000eb006d
:10744000d047880000fa200030cb880061488000d7
:10745000d0ff2f0000806000604888000001eb0032
:10746000020f78003500370040578000b05f880079
:1074700060488000620060000000e0002d003a00db
:107480006619e2000600320030cb80000000e900ff
:1074900030cb880012002000020f78002700370050
:1074a00060578000cf80de00480add00c802de00a1
:1074b000850272004802dd00904980006101b90038
:1074c0000400be00cff3070060ca880071ca8800bc
:1074d000600880000100200062ca80000202b8003b
:1074e00072ca80000283b9000501780006014100dc
:1074f00063ca80000198b90000014100820278004f
:107500004829dd004820de0000007100c8a8de0028
:10751000d047880000fa200030cb88006048800007
:107520000010a0006048880010002000000f7800c4
:107530000200370012002000020f78001e007800c1
:107540000080fa00000006000200fa006049800096
:1075500001002100010060000000e00004003a008a
:10756000b0548000620060000000e0000b003a00b0
:107570000000eb00a047880000fa200040cb880004
:1075800061488000e0ff2f000080600060488800b4
:107590000000eb00000f7800b30037009057800028
:1075a000e40f500046003a00e0478000e40f50002e
:1075b0000a003200e0478000e90f5000030032006b
:1075c000e0478000e20f500009003a006049800067
:1075d000640060000000e00005003200b05480004c
:1075e00001802000010060000000e00009003a0076
:1075f000ce4be20005003200b05480000140200074
:10760000010060000000e00002003a000d4ce200c2
:1076100020003200b0578000cf80de00480add0035
:10762000c802de00850272004802dd009049800039
:107630006101b9000400be0072f3070080ca88002f
:1076400091ca8800600880000100200082ca800082
:107650000202b80092ca80000283b90005017800d6
:107660000601410083ca80000198b9000001410071
:10767000820278004829dd004820de000000710009
:10768000c8a8de00a047880010002000000f780086
:10769000750037000000eb00a047880000fa2000ca
:1076a00040cb880061488000e0ff2f000080600030
:1076b000604888000001eb00020f78006a00370084
:1076c00090578000e10f50002f003a00f40ae200ca
:1076d0002d003a00be4be20020003200b05780007f
:1076e000cf80de00480add00c802de00850272009d
:1076f0004802dd00904980006101b9000400be002d
:1077000040f3070080ca880091ca880060088000a2
:107710000100200082ca80000202b80092ca8000e4
:107720000283b900050178000601410083ca800088
:107730000198b90000014100820278004829dd006b
:107740004820de0000007100c8a8de00a0478800c5
:1077500010002000000f7800430037000000eb000d
:10776000a047880000fa200040cb880061488000d4
:10777000e0ff2f0000806000604888000001eb00ff
:10778000020f78003800370090578000e60f500055
:1077900033003a004b4be20026003200e047800005
:1077a000e40f500003003200e0478000e30f500078
:1077b00020003a00b0578000cf80de00480add008c
:1077c000c802de00850272004802dd009049800098
:1077d0006101b9000400be000af3070080ca8800f6
:1077e00091ca8800600880000100200082ca8000e1
:1077f0000202b80092ca80000283b9000501780035
:107800000601410083ca80000198b90000014100cf
:10781000820278004829dd004820de000000710067
:10782000c8a8de00a047880010002000000f7800e4
:107830000d0037000000eb00a047880000fa200090
:1078400040cb880061488000e0ff2f00008060008e
:10785000604888000001eb00020f7800020037004a
:107860000000eb00000f78001e0078000080fa0096
:10787000000006000200fa006049800001002100bb
:10788000010060000000e00004003a00b0548000f5
:10789000620060000000e0000b003a000000eb0016
:1078a000a047880000fa200040cb88006148800093
:1078b000e0ff2f0000806000604888000000eb00bf
:1078c000000f78008600370090578000e40f5000ca
:1078d00024003a00ce4be20022003a000d4ce200b8
:1078e00020003a00b05480000180200001006000b8
:1078f0000000e0001b003200e0478000e40f500071
:1079000018003200e0478000e90f50000600320006
:10791000e0478000e20f500003003200e0478000a3
:10792000e80f500004003a006049800064006000e5
:107930000000e0000b003a000000eb00a0478800c8
:1079400000fa200040cb880061488000e0ff2f0053
:1079500000806000604888000001eb00020f7800a2
:107960005f00370090578000e10f50000f003a0091
:10797000f40ae2000d003a00be4be2000b003a00b0
:107980000000eb00a047880000fa200040cb8800f0
:1079900061488000e0ff2f000080600060488800a0
:1079a0000000eb00000f78004d003700905780007a
:1079b000e60f500017003a004b4be20013003a006c
:1079c000f80be20004003400c05f80000000e90012
:1079d000c05f88000f00370042578000c25f8800f8
:1079e0000000eb00a047880000fa200040cb880090
:1079f00061488000e0ff2f00008060006048880040
:107a00000000eb00000f780035003700425780007f
:107a1000c25f880060488000610060000000e000f4
:107a20002d003a006819e2000600320040cb8000c9
:107a30000000e90040cb880010002000000f780013
:107a400027003700c0578000cf80de00480add00e5
:107a5000c802de00850272004802dd009049800005
:107a60006101b9000400be0066f2070080ca880008
:107a700091ca8800600880000100200082ca80004e
:107a80000202b80092ca80000283b90005017800a2
:107a90000601410083ca80000198b900000141003d
:107aa000820278004829dd004820de0000007100d5
:107ab000c8a8de00a047880000fa200040cb88005c
:107ac000604880000000a00060488800100020008e
:107ad000000f78000200370012002000020f78002b
:107ae0001e0078000080fa0000000600801f780069
:107af0000000fa0010c0b3003eebb7008460a9009c
:107b00000080fa004f00780000400600801f7800d7
:107b10000000fa000000eb00d09f88000000eb009e
:107b2000e09f88000000eb0010b0880021e1a90070
:107b300086c0a9000080fa004f00780000400600cf
:107b40003600f800809fbe00829fbe00849fbe006a
:107b5000869fbe000000fa00d43d07000080fa00b6
:107b60004f03be004f02be004f01be004f00be00db
:107b70003600f900004006003600f800809fbe0085
:107b8000829fbe00849fbe00869fbe000000fa0058
:107b9000d33d07000080fa004f03be004f02be0035
:107ba0004f01be004f00be003600f9000040060045
:107bb000801f78000000fa00a1e2a90020148000d4
:107bc000504a880050148000704a88008014800059
:107bd000404a880070148000104a880040148000d9
:107be000204a880090148000304a880030148000b9
:107bf000604a880060148000004a880000148000f9
:107c0000804a880010148000904a88008560a9008e
:107c100010c0b300e0e8b7000080fa004f00780021
:107c2000004006000000fa008960a8008980a800d2
:107c30000080fa00004006000000fa008600a9005b
:107c40000080fa00004006000200fa008420a9002b
:107c50000080fa0000400600801f78000200fa0051
:107c60008480a90046c1bf000080fb004300de0005
:107c70000080fb00610060000000e00003003200b3
:107c8000200a8000000f7800f6ff37000080fa001d
:107c90004f00780000400600809fbe000000fa0000
:107ca0008fa0a90087a0a90013e1a9000000eb00a4
:107cb00050088800600a800001002000505c8800a5
:107cc000615c8800aacbbf000040e800aaebb700c7
:107cd000605d80000000e800605d880010c0b300b7
:107ce000b4ebb7008fa0a80013e1a8000080fa0051
:107cf0004f00be00004006000800fa00000f7800a8
:107d0000f00f20001e0060001007980000f02f0008
:107d10001e0060004800de00200798002e00900042
:107d2000300798001e009000c800dd003e00900063
:107d300001007000300798003e0090000080fa00bb
:107d4000000006003600f800809fbe00829fbe0043
:107d5000849fbe00869fbe000800fa000040eb0032
:107d6000304798007ec3bf000080fb004700de0064
:107d70000080fb000000e00036003200a01b800005
:107d80004a00de000100200080c6880091c68800fd
:107d9000901b80006101b800f0ff2000010020006e
:107da00000006100818061004609dd00ca01de003b
:107db000830171004601dd0080c6800091c680000d
:107dc000020070008380700080c6880091c6880021
:107dd000801b80006101b800c0ff2100010020006d
:107de0000000610081806100c001dd000200200010
:107df00080c6800091c68000020070008380700001
:107e000080c6880091c68800b01b8000baff0700ba
:107e1000a0c68800c01b8000b7ff0700b0c688005e
:107e2000d01b8000b4ff0700c0c68800e01b8000a4
:107e3000b1ff0700d0c68800d5c68000c4c6800048
:107e4000b3c68000a2c6800080c6800091c68000b4
:107e5000113e0700805b8000000f7800811b8000ce
:107e6000c0ff2f0080806000c0ff2f001e00600058
:107e7000808f5000030032007ee3a9009623a90002
:107e80008760a9008ec3bf000080fb004700de00b2
:107e90000080fb000000e000200032008000eb00ca
:107ea00021079800c5c2bf000080fb004700de002c
:107eb0000080fb000000e00002003a0012002000f9
:107ec000220798004e429000c720dd00c5c2bf00c7
:107ed0000074a10001407000c5e2b700001c8000e2
:107ee000000f7800111c8000010f7800221c800018
:107ef000020f7800341c8000040f7800401c8000c2
:107f0000000f7800511c8000010f7800621c800077
:107f1000020f78008ee3a9009603a90096c3bf0064
:107f20000080fb004500de000080fb006100600077
:107f30000000e0000100320096a3a9007ec3bf004c
:107f40000080fb004700de000080fb000000e00036
:107f500010013200941b8000340798003e0090000e
:107f6000e30f50005c003200be009000e38f500031
:107f700007003e003e019000e10f51002600320054
:107f80003e029000e10f52003b003e000a00370025
:107f90003e009000e50f500088003200be009000c7
:107fa000e48f50005d0036003e019000e60f510066
:107fb000d9003200f50037000040eb0096e8b7002a
:107fc000b11b8000f0ff2700008f60007603e20005
:107fd00006003d001e0078000000d000c492200082
:107fe00004004000c11b8000010878001e007800da
:107ff0000000d000c2922000020040000002eb000e
:1080000090017800921b80008000eb00905b800064
:1080100068040700dd0037000040eb0096e8b70079
:10802000b11b8000f0ff2700008f60007603e200a4
:1080300006003d001e0078000000d000a48e200045
:1080400004004000c11b8000010878001e00780079
:108050000000d000a28e2000020040000002eb00d1
:1080600090017800921b80008000eb00905b800004
:1080700050040700c50037000040eb0096e8b70049
:10808000b11b8000f0ff2700008f60007603e20044
:1080900006003d001e0078000000d000c48f2000c4
:1080a00004004000c11b8000010878001e00780019
:1080b0000000d000c28f2000020040000002eb0050
:1080c00090017800921b80008000eb00905b8000a4
:1080d00038040700ad0037000040eb0096e8b70019
:1080e000b11b8000f0ff2700008f60007603e200e4
:1080f00003003d00c01b80007f006000a04088009e
:108100000002eb00a3408000921b80008000eb0087
:10811000905b8000270407009c003700b01b8000a4
:1081200092e8b700b01b80004800de0093e8b7007b
:10813000c01b800094e8b700c01b80004800de0030
:1081400095e8b70010c0b30096e8b70095c8bf0027
:108150000080fb000000d000c49220000401400019
:1081600094c8bf000080fb000000d000c18f200039
:108170008101400093c8bf000080fb000000d000d8
:10818000a48e20008400400092c8bf000080fb0045
:108190000000d000c4922000040040009202780049
:1081a0001302780091017800100178008000eb0044
:1081b000905b8000cc030700740037000040eb00a8
:1081c00096e8b700b11b8000f0ff27000080600038
:1081d000005a88000040eb00204798002e40900095
:1081e000e94f500010003c002e4090000000fb00c2
:1081f0000000d000c281200082004000005a8000b0
:10820000910f100004003a0010c0b30030479800ee
:10821000a0c0b300204798002e4090000040e80026
:1082200020479800edff3700015a8000800a2000a7
:10823000808f500004003400015a8000100b200091
:10824000808f500007003400015a8000f00f20009a
:10825000808f500003003c003e409000e14f5000f2
:108260000c003a00005a8000010028000100700054
:10827000005a8800055a80000002eb008001eb00e4
:10828000921b80008000eb00905b8000960307004b
:108290003e0037007603e20010003d00005a8000e7
:1082a0000000d00084c2200004004000c11b8000f8
:1082b00001087800015a8000500b2000808f500088
:1082c00006003400015a8000800b2000808f50008f
:1082d00002003c0010c0b300fee9b700005a800065
:1082e0000000d00082c2200002004000100f780081
:1082f000055a80000002eb009e017800921b80006e
:108300008000eb00905b80007703070010c0b30093
:10831000fde9b7001d00370000192000308f8800ec
:10832000b11b8000f0ff2700008f60007603e200a1
:1083300016003d00f00f20001e006000b04a8800cb
:10834000c41b8000a44a8800d01b8000c04a88005b
:10835000e11b8000d14a8800b050800062006000bc
:108360000000e000090032005047800001002800b2
:1083700001017000655f800074498000e347800060
:1083800061002000005c8000570307007ee3a90025
:108390009623a9008760a9000080fa004f03be0061
:1083a0004f02be004f01be004f00be003600f90074
:1083b000004006000000fa0088e0a900a1e2a80041
:1083c0000080fa00004006000000fa00204820006b
:1083d00001002000404b8800514b8800404d200098
:1083e00001002000604b8800714b8800d04f2000b6
:1083f00001002000804b8800914b880090452000b0
:1084000001002000404b8800514b88006000b800fc
:10841000a04b8800b14b88003003200001002000f1
:10842000c04b8800d14b88000008200001002000cc
:10843000e04b8800f14b8800004a2000010020003a
:10844000004c8800114c8800c04c20000100200026
:10845000204c8800314c8800c051200001002000d1
:10846000404c8800514c88000080fa000000060053
:108470000000fa00c04b8000d14b80004c0add00a8
:10848000c402de00850272004c02dd00624b8000f7
:10849000734b8000404b8000514b80000001510025
:1084a000818159000400be00d6ef0700404e8800cd
:1084b000514e8800e24b8000f34b8000c04b80009f
:1084c000d14b800000005100818059004c0add0032
:1084d000c402de00850272004c02dd00824b800087
:1084e000934b8000604b8000714b80000001510075
:1084f000818159000400be00c2ef0700604e880071
:10850000714e8800e04b8000f14b80004c0add008a
:10851000c402de00850272004c02dd00824b800046
:10852000934b8000404b8000514b80000001510074
:10853000818159000400be00b2ef0700804e880020
:10854000914e8800824c8000934c8000604c8000eb
:10855000714c80000002510081825900224c800041
:10856000334c8000004c8000114c80000000510012
:1085700081805900c389de004d0bdd004301de0020
:10858000020173000400be009eef0700a04e8800a9
:10859000b14e8800a24c8000b34c8000804c80001b
:1085a000914c80000002510081825900424c8000b1
:1085b000534c8000204c8000314c80000000510062
:1085c00081805900c389de004d0bdd004301de00d0
:1085d000020173000400be008aef0700c04e88004d
:1085e000d14e88000080fa00000006000000fa006a
:1085f000c061800000508800d06180001050880069
:10860000e061800020508800f061800030508800d8
:108610000062800040508800106280005050880046
:1086200020628000605088003062800070508800b6
:108630004062800080508800506280009050880026
:10864000e0012000a050880070628000b0508800d7
:1086500080628000c0508800d06280001051880085
:10866000e062800020518800f06280003051880074
:108670004063800040518800506380006051880052
:108680008002200070518800100020008051880076
:10869000806380009051880010002000a051880065
:1086a000a0638000b0518800b0638000c051880092
:1086b0006064800090568800c0638000d0518800bc
:1086c000d0638000e0518800e0638000f0518800b2
:1086d000f0638000f05288009064800000538800ae
:1086e00080648000105388007065800020538800eb
:1086f00080678000005288007067800030538800d7
:1087000090678000e0528800b06780003052880097
:108710000063800010528800a0678000205288000b
:108720003063800040528800c0678000505288004b
:1087300010638000605288002063800070528800bf
:10874000d067800080528800e067800090528800e7
:1087500070698000c052880080698000d052880013
:108760009069800030548800a069800040548800df
:1087700050618000a0528800f0678000b0528800ed
:1087800090628000d0508800a0628000e050880095
:10879000b0628000f0508800c06280000051880004
:1087a0006066800060538800406680004053880007
:1087b00050668000505388007066800070538800b7
:1087c0008066800080538800906680009053880007
:1087d000a0668000a0538800b0668000b053880077
:1087e000c0668000c0538800d0668000d0538800e7
:1087f000e0668000e0538800f0668000f053880057
:1088000000678000005488001067800010548800c2
:108810002067800020548800306780005054880012
:108820004067800060548800506780007054880062
:10883000606780008054880000698000605588006f
:10884000306980007055880040698000805588003c
:1088500010698000a055880010658000b055880020
:10886000f0648000c0558800e0648000d055880026
:1088700000658000e0558800a06480006057880093
:10888000b064800050578800c06480007057880032
:10889000d064800080578800c068800090578800ae
:1088a000d0688000a0578800a0688000b05788007a
:1088b000b0688000c057880070688000b05488009d
:1088c00080688000c054880090688000d054880080
:1088d000506980009054880060698000a05488002e
:1088e000b0698000e0548800c0698000f0548800be
:1088f000d069800000558800e0698000105588002c
:10890000f069800020558800006a8000305588009a
:10891000106a800040558800206a80005055880009
:10892000006880009055880020688000b05688005c
:1089300040688000c0568800f0658000c0598800fb
:10894000506a8000f0558800706a80006056880088
:10895000806a800070568800906a80008056880087
:1089600070648000a0568800316a8000a00020005a
:108970000008b800705d8800416a8000a0002000f7
:108980000008b800805d8800706880004700de0045
:1089900061006000905d88002066800000588800bb
:1089a000306680001058880090658000005688006e
:1089b000a065800010568800b065800020568800b1
:1089c000c065800030568800d06580004056880021
:1089d000e065800050568800e06a8000d05688002c
:1089e000f06a8000e0568800006b8000f056880036
:1089f000106b800010578800206b800000578800a3
:108a0000306b800030578800406b80002057880012
:108a1000506b80004057880010688000d057880055
:108a200030688000e057880050688000f057880068
:108a30001066800020588800606b800030588800e5
:108a4000706b800040588800806b80005058880010
:108a5000906b800070588800a06b80008058880060
:108a6000b06b80009058880078cdbf00e8e8b70070
:108a700040618000605888000c0be2000400340064
:108a800061588000f0072000808f500004003400ff
:108a9000100020006058880010002000406188000d
:108aa0000000eb0050608800c15180001051800030
:108ab000808f500003003d0010c0b300ddebb70015
:108ac000020037000040eb00ddebb700915680005c
:108ad00040508000808f500003003d0010c0b30064
:108ae000deebb700020037000040eb00deebb70022
:108af000e0528000610060000000e00005003200ec
:108b000070478000f1fd2f00010060007047880071
:108b1000040037007047800001022000010070004f
:108b20007047880070538000610060000000e00022
:108b30000500320070478000f1fb2f00010060004b
:108b4000704788000400370070478000010420004f
:108b5000010070007047880071478000000220000b
:108b6000008070007047880071478000000420007a
:108b700000807000704788000080fa000000060046
:108b80000000fa0040538000e10f500028003a0036
:108b9000605380000052880050538000305388009a
:108ba00070538000e052880080538000305288006b
:108bb0009053800010528800a053800020528800fb
:108bc000b053800040528800c0538000505288004b
:108bd000d053800060528800e053800070528800bb
:108be000f05380008052880000548000905288002a
:108bf00010548000a052880020548000b052880099
:108c000030548000c052880040548000d052880008
:108c100050548000d050880060548000e05088009c
:108c200070548000f050880080548000005188000b
:108c30000080fa00000006000000fa004066800094
:108c4000e10f500029003a00606680000052880061
:108c5000506680003053880070668000e0528800c3
:108c60008066800030528800906680001052880034
:108c7000a066800020528800b066800040528800c4
:108c8000c066800050528800d06680006052880024
:108c9000e066800070528800f06680008052880094
:108ca000006780009052880010678000a052880002
:108cb00020678000b052880090698000c052880010
:108cc000a0698000d052880030678000d0508800b2
:108cd00040678000e050880050678000f0508800b6
:108ce000606780000051880028003700806780009e
:108cf00000528800706780003053880090678000c1
:108d0000e0528800b0678000305288000063800025
:108d100010528800a06780002052880030638000d5
:108d200040528800c0678000505288001063800065
:108d3000605288002063800070528800d0678000f5
:108d400080528800e0678000905288005061800067
:108d5000a0528800f0678000b052880070698000df
:108d6000c052880080698000d052880090628000e4
:108d7000d0508800a0628000e0508800b06280007f
:108d8000f0508800c0628000005188000080fa0026
:108d9000000006000000fa0040508000cf80de0096
:108da0004c0add00c402de00850272004c02dd00c8
:108db000106d80006101b8000400be0091ed070055
:108dc000b046880060508000cf80de004c0add0095
:108dd000c402de00850272004c02dd00106d8000ce
:108de0006101b8000400be0086ed0700c04688009f
:108df000c0468000e046880010518000cf80de0031
:108e00004c0add00c402de00850272004c02dd0067
:108e1000106d80006101b8000400be0079ed07000c
:108e20009046880000508000cf80de004c0add00b4
:108e3000c402de00850272004c02dd00106d80006d
:108e40006101b8000400be006eed0700a046880076
:108e5000a2468000d2468800c1468000b04680000d
:108e600000805000cf80de004c0add00c402de002e
:108e7000850272004c02dd0091508000705080002d
:108e8000008050006101b9000400be005ded0700e4
:108e900000458800a1468000904680000080500078
:108ea000cf80de004c0add00c402de0085027200c5
:108eb0004c02dd00315080001050800000805000d6
:108ec0006101b9000400be004eed07002045880096
:108ed000705280006101b900a0528000cf80de0096
:108ee00000005100818059004c0add00c402de0000
:108ef000850272004c02dd0061528000c052800089
:108f0000008050006101b9000400be003ded070083
:108f10003045880041458800f1ff200070528000f4
:108f200000805000cf80de004c0add00c402de006d
:108f3000850272004c02dd004152800060528000c8
:108f4000008050006101b9000400be002ded070053
:108f50005045880061458800905280006101b90049
:108f6000b0528000cf80de000000510081805900a7
:108f70004c09dd00c400de00810071004c00dd0002
:108f800060021000e082180081528000d052800000
:108f9000008050006101b9000400be0019ed070017
:108fa0007045880081458800905280006101b900b9
:108fb000f0ff2000010020000200500083805800d4
:108fc0004c09dd00c400de00810071004c00dd00b2
:108fd00060021000e0821800515280008052800030
:108fe000008050006101b9000400be0005ed0700db
:108ff00090458800a1458800405880006101b90073
:10900000a0608000b16080000000510081805900a4
:109010004c0add00c402de00850272004c02dd0055
:10902000305880006101b900c0608000d1608000cc
:1090300002015000838158000400be00f1ec0700db
:10904000b0458800c145880031568000f07f20007f
:109050000088b9004909dd004700de00000071000a
:10906000c788de00005e8800005e8000cf80de00e2
:109070004c0add00c402de00850272004c02dd00f5
:10908000006d80006101b8000400be00ddec070047
:10909000005e880041568000f07f20000088b90003
:1090a0004909dd004700de0000007100c788de00ce
:1090b000105e8800105e8000cf80de004c0add006c
:1090c000c402de00850272004c02dd00006d8000eb
:1090d0006101b8000400be00caec0700105e880001
:1090e0000080fa00000006000e00fa00000f780071
:1090f000110798002207980033079800440798004a
:10910000550798008f0f070030c0b300404f9800fc
:109110004e4890000004e0000d0034006ec3bf0014
:109120000080fb004300de000080fb006100600067
:109130000000e00002003a000040eb00404f9800c1
:109140004e4890000040e900404f9800f0ff370083
:109150006ec3bf000080fb004300de000080fb0008
:1091600061006000e10f500001003a006e63a90049
:109170001e007800001b88001e009000101b880055
:10918000001c2200201b88002e009000301b88004d
:109190003e009000401b88004e009000501b88004d
:1091a0005e009000601b88006e63a8000080fa00db
:1091b000000006000a00fa00000f7800110798006e
:1091c0002207980033079800440798008002eb00bc
:1091d0004e029000be0190002e0190009e00900073
:1091e0001e007800c0ff07000080fa0000000600a3
:1091f0000200fa00004f780020c2a9001e80fb0088
:109200002011880085c0bf000080fb006100600065
:109210000000e000fbff32008500a9002011800063
:109220000080fb000080fa00000006000000fa0049
:109230000040eb00eeff07000080fb000080fa001a
:10924000000006000200fa00004f7800e862a90062
:109250008500a90030c0b300e5ff07001e4078007c
:10926000e3ff0700f1ff070010479800e862a8003d
:109270001e4090000080fb000080fa000000060005
:109280000400fa00004f780011479800e862a90036
:109290008500a90010c0b300d5ff07000040eb0017
:1092a000d3ff0700e862a800e862a90060c0b3002d
:1092b000cfff0700e862a800e862a90020c0b30061
:1092c000cbff07001e407800c9ff07001e4090003a
:1092d000c7ff0700e862a8000080fa00000006004f
:1092e0000000fa0040062000805a8800401f20003d
:1092f000705a88000040eb004bebb7000040eb00d9
:1093000049ebb700005380000046880010538000ee
:10931000104688000040eb004cebb700e0548000a2
:10932000a05a8800c05d2000b05a88000040eb00c1
:109330005bebb7000040eb005cebb70010c0b30084
:109340005aebb700803e2000c05a88000040eb0076
:109350005debb7006000b800105c8800215c8800fd
:109360000040eb006eebb70000192000505b880056
:1093700040062000605b8800406380004051880008
:109380000040eb0065ebb7000040eb0066ebb70078
:109390000040eb0064ebb7000040eb00c6ebb70009
:1093a0000000eb00805e88000000eb00905e88000b
:1093b000f0478000a05e880080252000d05e8800f5
:1093c0000040eb00dcebb7000040eb00e1ebb70046
:1093d0000040eb00e6ebb70010c0b300e3ebb700d2
:1093e0000040eb00e2ebb700e0568000205f880011
:1093f000f0568000405f88000000eb00505f88005e
:109400000040eb00eeebb7000040eb0000ecb700d3
:109410000040eb0001ecb700a0c0b30002ecb700c5
:10942000a0c0b30003ecb7006000b800d05f8800b4
:10943000e15f88000040eb000cecb7000040eb005f
:109440000decb7000040eb000eecb70050742000ac
:1094500001002000a0608800b1608800f0ff2000bb
:1094600001002000c0608800d16088000040eb004f
:109470001eecb7000040eb0027ecb7000040eb000b
:1094800026ecb7000080fa00000006000000fa0099
:109490000040eb0042ebb7000080fa00000006003d
:1094a0000000fa0040538000e40f500003003a002f
:1094b00052cbbf00efebb70018003700b05680006a
:1094c000e20f500009003a00c0568000e20f500041
:1094d00004003a0060498000680060000000e0007d
:1094e00002003a0010c0b300efebb700b0568000a6
:1094f000e20f500009003a00c0568000e20f500011
:1095000006003a0060498000680060000000e0004a
:109510000200320030c0b300efebb7000080fa0069
:10952000000006000800fa00881f7800e14980006a
:10953000703e2000808f500002003c009049800067
:10954000e0498800e0498000cf80de004a09dd0064
:10955000c600de00810071004a00dd00008fbe0001
:109560000000eb00200798000000eb003007980097
:10957000008b21003002be002003be003e00be0072
:109580002e01be000020e10001a8e10002b0e100d0
:1095900003b8e10005003100008b21003e02be004f
:1095a0002e03be000498be000690be00088b21006a
:1095b000008b21005001be004000be00f47f20005f
:1095c000050020006033b800beeb07000203be00b8
:1095d0000002be003e00be002e01be00040040009e
:1095e000858048000601490087814900b5002000b8
:1095f0008301d1000281d3008180d3000080d30099
:109600008502e900faff3a00009cbe000294be0009
:10961000008b21005001be004000be00a6002000cb
:109620008301d1000281d3008180d3000080d30068
:109630000603e900faff3a00304088004140880004
:1096400037408000877088006049800070006000ab
:109650000000e00002003a000080eb00904188002a
:109660003208e20006003200904180000000e9006c
:10967000904188000040eb00c4ebb70002003700c7
:1096800010c0b300c4ebb70030408000e05d88003c
:109690004f0478000080fa00000006000000fa0085
:1096a0009149800010588000808f500003003c00da
:1096b0000000eb00e0458800100037009149800071
:1096c00000588000808f50000300350040062000c5
:1096d000e045880009003700bc0be20003003a00b7
:1096e0000040eb00c5ebb70004003700c54be200bb
:1096f000020032000040eb00c5ebb7000080fa002a
:10970000000006000400fa00c15980000075200026
:10971000808f50000d003a00914f8000800c200097
:109720000089b900004829003100200002005000e3
:10973000838058004909dd004700de000000710009
:10974000c788de00008fbe0058003700c159800076
:10975000c0572000808f50000d003a00914f8000cc
:10976000600920000089b90000f02a0021002000d3
:1097700002005000838058004909dd004700de00e8
:1097800000007100c788de00008fbe004700370070
:10979000c159800080af2000808f50000d003a003a
:1097a000914f8000c01220000089b90000e8250018
:1097b0005100200002005000838058004909dd005c
:1097c0004700de0000007100c788de00008fbe0089
:1097d00036003700c1598000009c2000808f500067
:1097e0000d003a00914f8000b01020000089b900b0
:1097f00000602c00410020000200500083805800cf
:109800004909dd004700de0000007100c788de0066
:10981000008fbe0025003700c15980004092200013
:10982000808f50000d003a00914f8000a00f200063
:109830000089b90000982700410020000200500074
:10984000838058004909dd004700de0000007100f8
:10985000c788de00008fbe0014003700c1598000a9
:1098600060662000808f50000d003a00914f80000c
:10987000f00a20000089b9000020220031002000f9
:1098800002005000838058004909dd004700de00d7
:1098900000007100c788de00008fbe0003003700a3
:1098a00010568000cf80de00008fbe001e007800c2
:1098b00070708800c00ae20035003200e047800086
:1098c000e30f500006003200e0478000e40f500034
:1098d00003003200e0478000e20f50002c003a0005
:1098e000c44be2001b003200304080004140800049
:1098f000be0f5000ae8f58000e003d00100be2006e
:109900000c0032003a08e20004003400d04180002c
:109910000000e900d04188000e00370010c0b300fd
:10992000beebb700605f80000000a000605f8800b1
:109930000800370000712200d04188000040eb0091
:10994000beebb700615f8000e0ff2f000080600089
:10995000605f8800e0bb200011c0b30090cf100012
:109960000f003a00605f8000610060000000e000ce
:109970000b003a00d04a8000610060000000e00067
:1099800007003a000040eb00beebb70004003700d0
:109990000040eb00beebb7000040eb00c4ebb700ab
:1099a0000080fa00000006000000fa00ea08e20069
:1099b00009003a00e409e20007003400214f80006a
:1099c000b0262000808f500003003c00d0da200039
:1099d00000c688000b00370051478000f0e02000ef
:1099e000808f500005003c0000c68000c1638000ed
:1099f0000100400000c68800020037000000eb00b4
:109a000000c68800e0478000e30f500010003a00d5
:109a1000805e80002048880001c68000c0da2000f7
:109a2000808f50002a0036000000eb0000c688003e
:109a3000c151800020488000808f500024003400f5
:109a4000204880000000e8002048880020003700ff
:109a5000e0478000e40f500010003a00905e800064
:109a60002048880001c68000c0da2000808f5000a6
:109a7000170036000000eb0000c68800c1518000ce
:109a800020488000808f5000110034002048800062
:109a90000000e800204888000d00370001c6800063
:109aa000c0da2000808f5000090036000000eb0073
:109ab00000c68800c151800020488000808f50007f
:109ac00003003400204880000000e800204888009f
:109ad0000080fa00000006000000fa006e4be20071
:109ae0000a003200b05180008000ea00204f800060
:109af000810f500005003400803e2000c05a8800cd
:109b000010c0b3005aebb7001f0037004c4be20007
:109b1000020032004b4be20002003200e04be20058
:109b200019003200ea08e20017003a00214f8000d5
:109b3000a0092000808f500013003c00214f8000be
:109b400050f62f00808f50000f003400b05c800072
:109b5000c15c8000e00f5000e08f58000a003a001e
:109b6000580be20004003200c05a80000000e900f7
:109b7000c05a880004003700803e2000c05a880088
:109b800010c0b3005aebb7000080fa0000000600d6
:109b90000000fa00b0508000620060000000e000a9
:109ba00014003200b05180008000ea00204f800095
:109bb000810f500006003400105180008102200007
:109bc00080804000304f8000810f5000040034003e
:109bd000605f80000010a000605f88001200370006
:109be000605f8000d1ff2f0001006000605f88008f
:109bf0000d003700b0508000610060000000e00000
:109c000009003200d04a8000620060000000e000dd
:109c10000300320010c0b300eeebb70002003700c3
:109c20000040eb00eeebb7000080fa0000000600f9
:109c30000600fa00304f8000200798002e009000a8
:109c40000000e00003003d002e0090000000ea004c
:109c500020079800e0478000e30f500009003a0019
:109c60001151800070568000808040002e009000ce
:109c7000810f50000e003c0010c0b3005debb70038
:109c80000b003700e0478000e40f500008003a0066
:109c90004150800070568000808040002e0090006f
:109ca000810f500002003c0010c0b3005debb70014
:109cb0000080fa00000006000800fa00208520005d
:109cc00011c0b30090cf10000400320020852000a6
:109cd00021c0b30090cf100003003a000040eb0019
:109ce00042ebb7002f000700424be2002b0032008e
:109cf000e0478000e30f500013003a00e609e2005d
:109d000004003d00304f80000000ea00300798005a
:109d100002003700304f800030079800105180005b
:109d20000080d10020079800be0090002e00900017
:109d3000808f5000190035000040eb0042ebb70067
:109d40001800070015003700e0478000e40f5000be
:109d500012003a00e609e20004003d00304f8000a6
:109d60000000ea003007980002003700314f800001
:109d700031079800405080000080d10020079800f3
:109d8000be0090002e009000808f50000300350030
:109d90000040eb0042ebb700020007000080fa0031
:109da000000006000000fa00fe08e200080034008f
:109db000f147800080568000808f500004003c00f6
:109dc00010c0b30064ebb70040518000405b8800d6
